{
  "_format": "hh-sol-artifact-1",
  "contractName": "WrappedKENO",
  "sourceName": "contracts/WrappedKENO.sol",
  "abi": [
    {
      "inputs": [
        {
          "internalType": "address",
          "name": "_owner",
          "type": "address"
        }
      ],
      "stateMutability": "nonpayable",
      "type": "constructor"
    },
    {
      "inputs": [],
      "name": "ECDSAInvalidSignature",
      "type": "error"
    },
    {
      "inputs": [
        {
          "internalType": "uint256",
          "name": "length",
          "type": "uint256"
        }
      ],
      "name": "ECDSAInvalidSignatureLength",
      "type": "error"
    },
    {
      "inputs": [
        {
          "internalType": "bytes32",
          "name": "s",
          "type": "bytes32"
        }
      ],
      "name": "ECDSAInvalidSignatureS",
      "type": "error"
    },
    {
      "inputs": [
        {
          "internalType": "address",
          "name": "spender",
          "type": "address"
        },
        {
          "internalType": "uint256",
          "name": "allowance",
          "type": "uint256"
        },
        {
          "internalType": "uint256",
          "name": "needed",
          "type": "uint256"
        }
      ],
      "name": "ERC20InsufficientAllowance",
      "type": "error"
    },
    {
      "inputs": [
        {
          "internalType": "address",
          "name": "sender",
          "type": "address"
        },
        {
          "internalType": "uint256",
          "name": "balance",
          "type": "uint256"
        },
        {
          "internalType": "uint256",
          "name": "needed",
          "type": "uint256"
        }
      ],
      "name": "ERC20InsufficientBalance",
      "type": "error"
    },
    {
      "inputs": [
        {
          "internalType": "address",
          "name": "approver",
          "type": "address"
        }
      ],
      "name": "ERC20InvalidApprover",
      "type": "error"
    },
    {
      "inputs": [
        {
          "internalType": "address",
          "name": "receiver",
          "type": "address"
        }
      ],
      "name": "ERC20InvalidReceiver",
      "type": "error"
    },
    {
      "inputs": [
        {
          "internalType": "address",
          "name": "sender",
          "type": "address"
        }
      ],
      "name": "ERC20InvalidSender",
      "type": "error"
    },
    {
      "inputs": [
        {
          "internalType": "address",
          "name": "spender",
          "type": "address"
        }
      ],
      "name": "ERC20InvalidSpender",
      "type": "error"
    },
    {
      "inputs": [
        {
          "internalType": "uint256",
          "name": "deadline",
          "type": "uint256"
        }
      ],
      "name": "ERC2612ExpiredSignature",
      "type": "error"
    },
    {
      "inputs": [
        {
          "internalType": "address",
          "name": "signer",
          "type": "address"
        },
        {
          "internalType": "address",
          "name": "owner",
          "type": "address"
        }
      ],
      "name": "ERC2612InvalidSigner",
      "type": "error"
    },
    {
      "inputs": [
        {
          "internalType": "address",
          "name": "account",
          "type": "address"
        },
        {
          "internalType": "uint256",
          "name": "currentNonce",
          "type": "uint256"
        }
      ],
      "name": "InvalidAccountNonce",
      "type": "error"
    },
    {
      "inputs": [],
      "name": "InvalidShortString",
      "type": "error"
    },
    {
      "inputs": [
        {
          "internalType": "address",
          "name": "owner",
          "type": "address"
        }
      ],
      "name": "OwnableInvalidOwner",
      "type": "error"
    },
    {
      "inputs": [
        {
          "internalType": "address",
          "name": "account",
          "type": "address"
        }
      ],
      "name": "OwnableUnauthorizedAccount",
      "type": "error"
    },
    {
      "inputs": [
        {
          "internalType": "string",
          "name": "str",
          "type": "string"
        }
      ],
      "name": "StringTooLong",
      "type": "error"
    },
    {
      "anonymous": false,
      "inputs": [
        {
          "indexed": true,
          "internalType": "address",
          "name": "owner",
          "type": "address"
        },
        {
          "indexed": true,
          "internalType": "address",
          "name": "spender",
          "type": "address"
        },
        {
          "indexed": false,
          "internalType": "uint256",
          "name": "value",
          "type": "uint256"
        }
      ],
      "name": "Approval",
      "type": "event"
    },
    {
      "anonymous": false,
      "inputs": [
        {
          "indexed": true,
          "internalType": "address",
          "name": "from",
          "type": "address"
        },
        {
          "indexed": false,
          "internalType": "uint256",
          "name": "amount",
          "type": "uint256"
        },
        {
          "indexed": false,
          "internalType": "string",
          "name": "bscRecipient",
          "type": "string"
        }
      ],
      "name": "BridgeBurn",
      "type": "event"
    },
    {
      "anonymous": false,
      "inputs": [
        {
          "indexed": true,
          "internalType": "address",
          "name": "to",
          "type": "address"
        },
        {
          "indexed": false,
          "internalType": "uint256",
          "name": "amount",
          "type": "uint256"
        },
        {
          "indexed": true,
          "internalType": "bytes32",
          "name": "bscTxHash",
          "type": "bytes32"
        }
      ],
      "name": "BridgeMint",
      "type": "event"
    },
    {
      "anonymous": false,
      "inputs": [
        {
          "indexed": false,
          "internalType": "bool",
          "name": "paused",
          "type": "bool"
        }
      ],
      "name": "BridgePauseToggled",
      "type": "event"
    },
    {
      "anonymous": false,
      "inputs": [],
      "name": "EIP712DomainChanged",
      "type": "event"
    },
    {
      "anonymous": false,
      "inputs": [
        {
          "indexed": true,
          "internalType": "address",
          "name": "previousOwner",
          "type": "address"
        },
        {
          "indexed": true,
          "internalType": "address",
          "name": "newOwner",
          "type": "address"
        }
      ],
      "name": "OwnershipTransferred",
      "type": "event"
    },
    {
      "anonymous": false,
      "inputs": [
        {
          "indexed": true,
          "internalType": "address",
          "name": "oldRelayer",
          "type": "address"
        },
        {
          "indexed": true,
          "internalType": "address",
          "name": "newRelayer",
          "type": "address"
        }
      ],
      "name": "RelayerUpdated",
      "type": "event"
    },
    {
      "anonymous": false,
      "inputs": [
        {
          "indexed": true,
          "internalType": "address",
          "name": "from",
          "type": "address"
        },
        {
          "indexed": true,
          "internalType": "address",
          "name": "to",
          "type": "address"
        },
        {
          "indexed": false,
          "internalType": "uint256",
          "name": "value",
          "type": "uint256"
        }
      ],
      "name": "Transfer",
      "type": "event"
    },
    {
      "inputs": [],
      "name": "DOMAIN_SEPARATOR",
      "outputs": [
        {
          "internalType": "bytes32",
          "name": "",
          "type": "bytes32"
        }
      ],
      "stateMutability": "view",
      "type": "function"
    },
    {
      "inputs": [],
      "name": "MAX_SUPPLY",
      "outputs": [
        {
          "internalType": "uint256",
          "name": "",
          "type": "uint256"
        }
      ],
      "stateMutability": "view",
      "type": "function"
    },
    {
      "inputs": [
        {
          "internalType": "address",
          "name": "owner",
          "type": "address"
        },
        {
          "internalType": "address",
          "name": "spender",
          "type": "address"
        }
      ],
      "name": "allowance",
      "outputs": [
        {
          "internalType": "uint256",
          "name": "",
          "type": "uint256"
        }
      ],
      "stateMutability": "view",
      "type": "function"
    },
    {
      "inputs": [
        {
          "internalType": "address",
          "name": "spender",
          "type": "address"
        },
        {
          "internalType": "uint256",
          "name": "value",
          "type": "uint256"
        }
      ],
      "name": "approve",
      "outputs": [
        {
          "internalType": "bool",
          "name": "",
          "type": "bool"
        }
      ],
      "stateMutability": "nonpayable",
      "type": "function"
    },
    {
      "inputs": [
        {
          "internalType": "address",
          "name": "account",
          "type": "address"
        }
      ],
      "name": "balanceOf",
      "outputs": [
        {
          "internalType": "uint256",
          "name": "",
          "type": "uint256"
        }
      ],
      "stateMutability": "view",
      "type": "function"
    },
    {
      "inputs": [
        {
          "internalType": "uint256",
          "name": "amount",
          "type": "uint256"
        },
        {
          "internalType": "string",
          "name": "bscRecipient",
          "type": "string"
        }
      ],
      "name": "bridgeBurn",
      "outputs": [],
      "stateMutability": "nonpayable",
      "type": "function"
    },
    {
      "inputs": [
        {
          "internalType": "address",
          "name": "to",
          "type": "address"
        },
        {
          "internalType": "uint256",
          "name": "amount",
          "type": "uint256"
        },
        {
          "internalType": "bytes32",
          "name": "bscTxHash",
          "type": "bytes32"
        }
      ],
      "name": "bridgeMint",
      "outputs": [],
      "stateMutability": "nonpayable",
      "type": "function"
    },
    {
      "inputs": [],
      "name": "bridgePaused",
      "outputs": [
        {
          "internalType": "bool",
          "name": "",
          "type": "bool"
        }
      ],
      "stateMutability": "view",
      "type": "function"
    },
    {
      "inputs": [],
      "name": "bridgeRelayer",
      "outputs": [
        {
          "internalType": "address",
          "name": "",
          "type": "address"
        }
      ],
      "stateMutability": "view",
      "type": "function"
    },
    {
      "inputs": [],
      "name": "bridgeStats",
      "outputs": [
        {
          "internalType": "uint256",
          "name": "minted",
          "type": "uint256"
        },
        {
          "internalType": "uint256",
          "name": "burned",
          "type": "uint256"
        },
        {
          "internalType": "uint256",
          "name": "netCirculating",
          "type": "uint256"
        },
        {
          "internalType": "bool",
          "name": "paused",
          "type": "bool"
        }
      ],
      "stateMutability": "view",
      "type": "function"
    },
    {
      "inputs": [
        {
          "internalType": "uint256",
          "name": "value",
          "type": "uint256"
        }
      ],
      "name": "burn",
      "outputs": [],
      "stateMutability": "nonpayable",
      "type": "function"
    },
    {
      "inputs": [
        {
          "internalType": "address",
          "name": "account",
          "type": "address"
        },
        {
          "internalType": "uint256",
          "name": "value",
          "type": "uint256"
        }
      ],
      "name": "burnFrom",
      "outputs": [],
      "stateMutability": "nonpayable",
      "type": "function"
    },
    {
      "inputs": [],
      "name": "circulatingSupply",
      "outputs": [
        {
          "internalType": "uint256",
          "name": "",
          "type": "uint256"
        }
      ],
      "stateMutability": "view",
      "type": "function"
    },
    {
      "inputs": [],
      "name": "decimals",
      "outputs": [
        {
          "internalType": "uint8",
          "name": "",
          "type": "uint8"
        }
      ],
      "stateMutability": "view",
      "type": "function"
    },
    {
      "inputs": [],
      "name": "eip712Domain",
      "outputs": [
        {
          "internalType": "bytes1",
          "name": "fields",
          "type": "bytes1"
        },
        {
          "internalType": "string",
          "name": "name",
          "type": "string"
        },
        {
          "internalType": "string",
          "name": "version",
          "type": "string"
        },
        {
          "internalType": "uint256",
          "name": "chainId",
          "type": "uint256"
        },
        {
          "internalType": "address",
          "name": "verifyingContract",
          "type": "address"
        },
        {
          "internalType": "bytes32",
          "name": "salt",
          "type": "bytes32"
        },
        {
          "internalType": "uint256[]",
          "name": "extensions",
          "type": "uint256[]"
        }
      ],
      "stateMutability": "view",
      "type": "function"
    },
    {
      "inputs": [],
      "name": "name",
      "outputs": [
        {
          "internalType": "string",
          "name": "",
          "type": "string"
        }
      ],
      "stateMutability": "view",
      "type": "function"
    },
    {
      "inputs": [
        {
          "internalType": "address",
          "name": "owner",
          "type": "address"
        }
      ],
      "name": "nonces",
      "outputs": [
        {
          "internalType": "uint256",
          "name": "",
          "type": "uint256"
        }
      ],
      "stateMutability": "view",
      "type": "function"
    },
    {
      "inputs": [],
      "name": "owner",
      "outputs": [
        {
          "internalType": "address",
          "name": "",
          "type": "address"
        }
      ],
      "stateMutability": "view",
      "type": "function"
    },
    {
      "inputs": [
        {
          "internalType": "address",
          "name": "owner",
          "type": "address"
        },
        {
          "internalType": "address",
          "name": "spender",
          "type": "address"
        },
        {
          "internalType": "uint256",
          "name": "value",
          "type": "uint256"
        },
        {
          "internalType": "uint256",
          "name": "deadline",
          "type": "uint256"
        },
        {
          "internalType": "uint8",
          "name": "v",
          "type": "uint8"
        },
        {
          "internalType": "bytes32",
          "name": "r",
          "type": "bytes32"
        },
        {
          "internalType": "bytes32",
          "name": "s",
          "type": "bytes32"
        }
      ],
      "name": "permit",
      "outputs": [],
      "stateMutability": "nonpayable",
      "type": "function"
    },
    {
      "inputs": [],
      "name": "renounceOwnership",
      "outputs": [],
      "stateMutability": "nonpayable",
      "type": "function"
    },
    {
      "inputs": [
        {
          "internalType": "address",
          "name": "_relayer",
          "type": "address"
        }
      ],
      "name": "setRelayer",
      "outputs": [],
      "stateMutability": "nonpayable",
      "type": "function"
    },
    {
      "inputs": [],
      "name": "symbol",
      "outputs": [
        {
          "internalType": "string",
          "name": "",
          "type": "string"
        }
      ],
      "stateMutability": "view",
      "type": "function"
    },
    {
      "inputs": [],
      "name": "toggleBridgePause",
      "outputs": [],
      "stateMutability": "nonpayable",
      "type": "function"
    },
    {
      "inputs": [],
      "name": "totalBridgedFromBSC",
      "outputs": [
        {
          "internalType": "uint256",
          "name": "",
          "type": "uint256"
        }
      ],
      "stateMutability": "view",
      "type": "function"
    },
    {
      "inputs": [],
      "name": "totalBridgedToBSC",
      "outputs": [
        {
          "internalType": "uint256",
          "name": "",
          "type": "uint256"
        }
      ],
      "stateMutability": "view",
      "type": "function"
    },
    {
      "inputs": [],
      "name": "totalSupply",
      "outputs": [
        {
          "internalType": "uint256",
          "name": "",
          "type": "uint256"
        }
      ],
      "stateMutability": "view",
      "type": "function"
    },
    {
      "inputs": [
        {
          "internalType": "address",
          "name": "to",
          "type": "address"
        },
        {
          "internalType": "uint256",
          "name": "value",
          "type": "uint256"
        }
      ],
      "name": "transfer",
      "outputs": [
        {
          "internalType": "bool",
          "name": "",
          "type": "bool"
        }
      ],
      "stateMutability": "nonpayable",
      "type": "function"
    },
    {
      "inputs": [
        {
          "internalType": "address",
          "name": "from",
          "type": "address"
        },
        {
          "internalType": "address",
          "name": "to",
          "type": "address"
        },
        {
          "internalType": "uint256",
          "name": "value",
          "type": "uint256"
        }
      ],
      "name": "transferFrom",
      "outputs": [
        {
          "internalType": "bool",
          "name": "",
          "type": "bool"
        }
      ],
      "stateMutability": "nonpayable",
      "type": "function"
    },
    {
      "inputs": [
        {
          "internalType": "address",
          "name": "newOwner",
          "type": "address"
        }
      ],
      "name": "transferOwnership",
      "outputs": [],
      "stateMutability": "nonpayable",
      "type": "function"
    }
  ],
  "bytecode": "0x610160604052348015610010575f5ffd5b50604051611c05380380611c0583398101604081905261002f9161028d565b6040518060400160405280600c81526020016b57726170706564204b454e4f60a01b81525080604051806040016040528060018152602001603160f81b815250836040518060400160405280600c81526020016b57726170706564204b454e4f60a01b81525060405180604001604052806005815260200164774b454e4f60d81b81525081600390816100c29190610352565b5060046100cf8282610352565b5050506001600160a01b03811661010057604051631e4fbdf760e01b81525f60048201526024015b60405180910390fd5b610109816101cd565b5061011582600661021e565b6101205261012481600761021e565b61014052815160208084019190912060e052815190820120610100524660a0526101b060e05161010051604080517f8b73c3c69bb8fe3d512ecc4cf759cc79239f7b179b0ffacaa9a75d522b39400f60208201529081019290925260608201524660808201523060a08201525f9060c00160405160208183030381529060405280519060200120905090565b60805250503060c05250506009805460ff60a01b19169055610464565b600580546001600160a01b038381166001600160a01b0319831681179093556040519116919082907f8be0079c531659141344cd1fd0a4f28419497f9722a3daafe3b4186f6b6457e0905f90a35050565b5f6020835110156102395761023283610250565b905061024a565b816102448482610352565b5060ff90505b92915050565b5f5f829050601f8151111561027a578260405163305a27a960e01b81526004016100f7919061040c565b805161028582610441565b179392505050565b5f6020828403121561029d575f5ffd5b81516001600160a01b03811681146102b3575f5ffd5b9392505050565b634e487b7160e01b5f52604160045260245ffd5b600181811c908216806102e257607f821691505b60208210810361030057634e487b7160e01b5f52602260045260245ffd5b50919050565b601f82111561034d57805f5260205f20601f840160051c8101602085101561032b5750805b601f840160051c820191505b8181101561034a575f8155600101610337565b50505b505050565b81516001600160401b0381111561036b5761036b6102ba565b61037f8161037984546102ce565b84610306565b6020601f8211600181146103b1575f831561039a5750848201515b5f19600385901b1c1916600184901b17845561034a565b5f84815260208120601f198516915b828110156103e057878501518255602094850194600190920191016103c0565b50848210156103fd57868401515f19600387901b60f8161c191681555b50505050600190811b01905550565b602081525f82518060208401528060208501604085015e5f604082850101526040601f19601f83011684010191505092915050565b80516020808301519190811015610300575f1960209190910360031b1b16919050565b60805160a05160c05160e0516101005161012051610140516117506104b55f395f610e8101525f610e5401525f610d4b01525f610d2301525f610c7e01525f610ca801525f610cd201526117505ff3fe608060405234801561000f575f5ffd5b50600436106101c6575f3560e01c80637b0fd552116100fe5780639ad34e821161009e578063dd62ed3e1161006e578063dd62ed3e146103c8578063f2fde38b14610400578063f661e63114610413578063fb11f72e14610426575f5ffd5b80639ad34e8214610386578063a63d3a4f1461038f578063a9059cbb146103a2578063d505accf146103b5575f5ffd5b806384b0196e116100d957806384b0196e1461034a5780638da5cb5b146103655780639358928b1461037657806395d89b411461037e575f5ffd5b80637b0fd552146102e25780637ecebe001461030c5780637f6577b61461031f575f5ffd5b806340e2551a116101695780636ccf20d5116101445780636ccf20d51461028b57806370a082311461029f578063715018a6146102c757806379cc6790146102cf575f5ffd5b806340e2551a1461025a57806342966c68146102635780636548e9bc14610278575f5ffd5b806323b872dd116101a457806323b872dd1461021d578063313ce5671461023057806332cb6b0c1461023f5780633644e51514610252575f5ffd5b806306fdde03146101ca578063095ea7b3146101e857806318160ddd1461020b575b5f5ffd5b6101d261042e565b6040516101df91906113d9565b60405180910390f35b6101fb6101f636600461140d565b6104be565b60405190151581526020016101df565b6002545b6040519081526020016101df565b6101fb61022b366004611435565b6104d7565b604051601281526020016101df565b61020f6b033b2e3c9fd0803ce800000081565b61020f6104fa565b61020f600a5481565b61027661027136600461146f565b610508565b005b610276610286366004611486565b610515565b6009546101fb90600160a01b900460ff1681565b61020f6102ad366004611486565b6001600160a01b03165f9081526020819052604090205490565b610276610578565b6102766102dd36600461140d565b61058b565b6102ea6105a4565b60408051948552602085019390935291830152151560608201526080016101df565b61020f61031a366004611486565b6105d2565b600954610332906001600160a01b031681565b6040516001600160a01b0390911681526020016101df565b6103526105ef565b6040516101df979695949392919061149f565b6005546001600160a01b0316610332565b61020f610631565b6101d261063b565b61020f600b5481565b61027661039d366004611535565b61064a565b6101fb6103b036600461140d565b6107aa565b6102766103c33660046115ac565b6107b7565b61020f6103d6366004611619565b6001600160a01b039182165f90815260016020908152604080832093909416825291909152205490565b61027661040e366004611486565b6108ed565b61027661042136600461164a565b610927565b610276610b19565b60606003805461043d9061167a565b80601f01602080910402602001604051908101604052809291908181526020018280546104699061167a565b80156104b45780601f1061048b576101008083540402835291602001916104b4565b820191905f5260205f20905b81548152906001019060200180831161049757829003601f168201915b5050505050905090565b5f336104cb818585610b87565b60019150505b92915050565b5f336104e4858285610b99565b6104ef858585610c15565b506001949350505050565b5f610503610c72565b905090565b6105123382610d9b565b50565b61051d610dcf565b6009546040516001600160a01b038084169216907f605ca4e43489fb38b91aa63dd9147cd3847957694b080b9285ec898b34269f0c905f90a3600980546001600160a01b0319166001600160a01b0392909216919091179055565b610580610dcf565b6105895f610dfc565b565b610596823383610b99565b6105a08282610d9b565b5050565b5f5f5f5f600a54600b546105b760025490565b60095492979196509450600160a01b90910460ff1692509050565b6001600160a01b0381165f908152600860205260408120546104d1565b5f6060805f5f5f6060610600610e4d565b610608610e7a565b604080515f80825260208201909252600f60f81b9b939a50919850469750309650945092509050565b5f61050360025490565b60606004805461043d9061167a565b600954600160a01b900460ff16156106a35760405162461bcd60e51b81526020600482015260176024820152761dd2d15393ce88189c9a5919d9481a5cc81c185d5cd959604a1b60448201526064015b60405180910390fd5b5f83116106f25760405162461bcd60e51b815260206004820152601960248201527f774b454e4f3a20616d6f756e74206d757374206265203e203000000000000000604482015260640161069a565b8061073f5760405162461bcd60e51b815260206004820152601d60248201527f774b454e4f3a2042534320726563697069656e74207265717569726564000000604482015260640161069a565b82600b5f82825461075091906116b2565b9091555061076090503384610d9b565b336001600160a01b03167f35e2167161db5b6e560d143c51984d248beb108dc517fb4b51c4808cc449881184848460405161079d939291906116d1565b60405180910390a2505050565b5f336104cb818585610c15565b834211156107db5760405163313c898160e11b81526004810185905260240161069a565b5f7f6e71edae12b1b97f4d1f60370fef10105fa2faae0126114a169c64845d6126c98888886108268c6001600160a01b03165f90815260086020526040902080546001810190915590565b6040805160208101969096526001600160a01b0394851690860152929091166060840152608083015260a082015260c0810186905260e0016040516020818303038152906040528051906020012090505f61088082610ea7565b90505f61088f82878787610ed3565b9050896001600160a01b0316816001600160a01b0316146108d6576040516325c0072360e11b81526001600160a01b0380831660048301528b16602482015260440161069a565b6108e18a8a8a610b87565b50505050505050505050565b6108f5610dcf565b6001600160a01b03811661091e57604051631e4fbdf760e01b81525f600482015260240161069a565b61051281610dfc565b6005546001600160a01b031633148061094a57506009546001600160a01b031633145b6109965760405162461bcd60e51b815260206004820152601b60248201527f774b454e4f3a2063616c6c6572206973206e6f74206272696467650000000000604482015260640161069a565b600954600160a01b900460ff16156109ea5760405162461bcd60e51b81526020600482015260176024820152761dd2d15393ce88189c9a5919d9481a5cc81c185d5cd959604a1b604482015260640161069a565b6001600160a01b038316610a405760405162461bcd60e51b815260206004820152601b60248201527f774b454e4f3a206d696e7420746f207a65726f20616464726573730000000000604482015260640161069a565b6b033b2e3c9fd0803ce800000082610a5760025490565b610a6191906116b2565b1115610aaf5760405162461bcd60e51b815260206004820152601960248201527f774b454e4f3a2065786365656473206d617820737570706c7900000000000000604482015260640161069a565b81600a5f828254610ac091906116b2565b90915550610ad090508383610eff565b80836001600160a01b03167f096d591342eea46377f5d86fed8a91ab1e9be20a7c3f5d698cecc1d4f698680a84604051610b0c91815260200190565b60405180910390a3505050565b610b21610dcf565b6009805460ff600160a01b808304821615810260ff60a01b1990931692909217928390556040517f72548805a94f522c3f8a3f6c148e51e0e25397aa72f8086d97d2ee3936971ed593610b7d9390049091161515815260200190565b60405180910390a1565b610b948383836001610f33565b505050565b6001600160a01b038381165f908152600160209081526040808320938616835292905220545f19811015610c0f5781811015610c0157604051637dc7a0d960e11b81526001600160a01b0384166004820152602481018290526044810183905260640161069a565b610c0f84848484035f610f33565b50505050565b6001600160a01b038316610c3e57604051634b637e8f60e11b81525f600482015260240161069a565b6001600160a01b038216610c675760405163ec442f0560e01b81525f600482015260240161069a565b610b94838383611005565b5f306001600160a01b037f000000000000000000000000000000000000000000000000000000000000000016148015610cca57507f000000000000000000000000000000000000000000000000000000000000000046145b15610cf457507f000000000000000000000000000000000000000000000000000000000000000090565b610503604080517f8b73c3c69bb8fe3d512ecc4cf759cc79239f7b179b0ffacaa9a75d522b39400f60208201527f0000000000000000000000000000000000000000000000000000000000000000918101919091527f000000000000000000000000000000000000000000000000000000000000000060608201524660808201523060a08201525f9060c00160405160208183030381529060405280519060200120905090565b6001600160a01b038216610dc457604051634b637e8f60e11b81525f600482015260240161069a565b6105a0825f83611005565b6005546001600160a01b031633146105895760405163118cdaa760e01b815233600482015260240161069a565b600580546001600160a01b038381166001600160a01b0319831681179093556040519116919082907f8be0079c531659141344cd1fd0a4f28419497f9722a3daafe3b4186f6b6457e0905f90a35050565b60606105037f0000000000000000000000000000000000000000000000000000000000000000600661111e565b60606105037f0000000000000000000000000000000000000000000000000000000000000000600761111e565b5f6104d1610eb3610c72565b8360405161190160f01b8152600281019290925260228201526042902090565b5f5f5f5f610ee3888888886111c7565b925092509250610ef3828261128f565b50909695505050505050565b6001600160a01b038216610f285760405163ec442f0560e01b81525f600482015260240161069a565b6105a05f8383611005565b6001600160a01b038416610f5c5760405163e602df0560e01b81525f600482015260240161069a565b6001600160a01b038316610f8557604051634a1406b160e11b81525f600482015260240161069a565b6001600160a01b038085165f9081526001602090815260408083209387168352929052208290558015610c0f57826001600160a01b0316846001600160a01b03167f8c5be1e5ebec7d5bd14f71427d1e84f3dd0314c0f7b2291e5b200ac8c7c3b92584604051610ff791815260200190565b60405180910390a350505050565b6001600160a01b03831661102f578060025f82825461102491906116b2565b9091555061109f9050565b6001600160a01b0383165f90815260208190526040902054818110156110815760405163391434e360e21b81526001600160a01b0385166004820152602481018290526044810183905260640161069a565b6001600160a01b0384165f9081526020819052604090209082900390555b6001600160a01b0382166110bb576002805482900390556110d9565b6001600160a01b0382165f9081526020819052604090208054820190555b816001600160a01b0316836001600160a01b03167fddf252ad1be2c89b69c2b068fc378daa952ba7f163c4a11628f55a4df523b3ef83604051610b0c91815260200190565b606060ff83146111385761113183611347565b90506104d1565b8180546111449061167a565b80601f01602080910402602001604051908101604052809291908181526020018280546111709061167a565b80156111bb5780601f10611192576101008083540402835291602001916111bb565b820191905f5260205f20905b81548152906001019060200180831161119e57829003601f168201915b505050505090506104d1565b5f80807f7fffffffffffffffffffffffffffffff5d576e7357a4501ddfe92f46681b20a084111561120057505f91506003905082611285565b604080515f808252602082018084528a905260ff891692820192909252606081018790526080810186905260019060a0016020604051602081039080840390855afa158015611251573d5f5f3e3d5ffd5b5050604051601f1901519150506001600160a01b03811661127c57505f925060019150829050611285565b92505f91508190505b9450945094915050565b5f8260038111156112a2576112a2611706565b036112ab575050565b60018260038111156112bf576112bf611706565b036112dd5760405163f645eedf60e01b815260040160405180910390fd5b60028260038111156112f1576112f1611706565b036113125760405163fce698f760e01b81526004810182905260240161069a565b600382600381111561132657611326611706565b036105a0576040516335e2f38360e21b81526004810182905260240161069a565b60605f61135383611384565b6040805160208082528183019092529192505f91906020820181803683375050509182525060208101929092525090565b5f60ff8216601f8111156104d157604051632cd44ac360e21b815260040160405180910390fd5b5f81518084528060208401602086015e5f602082860101526020601f19601f83011685010191505092915050565b602081525f6113eb60208301846113ab565b9392505050565b80356001600160a01b0381168114611408575f5ffd5b919050565b5f5f6040838503121561141e575f5ffd5b611427836113f2565b946020939093013593505050565b5f5f5f60608486031215611447575f5ffd5b611450846113f2565b925061145e602085016113f2565b929592945050506040919091013590565b5f6020828403121561147f575f5ffd5b5035919050565b5f60208284031215611496575f5ffd5b6113eb826113f2565b60ff60f81b8816815260e060208201525f6114bd60e08301896113ab565b82810360408401526114cf81896113ab565b606084018890526001600160a01b038716608085015260a0840186905283810360c0850152845180825260208087019350909101905f5b81811015611524578351835260209384019390920191600101611506565b50909b9a5050505050505050505050565b5f5f5f60408486031215611547575f5ffd5b83359250602084013567ffffffffffffffff811115611564575f5ffd5b8401601f81018613611574575f5ffd5b803567ffffffffffffffff81111561158a575f5ffd5b86602082840101111561159b575f5ffd5b939660209190910195509293505050565b5f5f5f5f5f5f5f60e0888a0312156115c2575f5ffd5b6115cb886113f2565b96506115d9602089016113f2565b95506040880135945060608801359350608088013560ff811681146115fc575f5ffd5b9699959850939692959460a0840135945060c09093013592915050565b5f5f6040838503121561162a575f5ffd5b611633836113f2565b9150611641602084016113f2565b90509250929050565b5f5f5f6060848603121561165c575f5ffd5b611665846113f2565b95602085013595506040909401359392505050565b600181811c9082168061168e57607f821691505b6020821081036116ac57634e487b7160e01b5f52602260045260245ffd5b50919050565b808201808211156104d157634e487b7160e01b5f52601160045260245ffd5b83815260406020820152816040820152818360608301375f818301606090810191909152601f909201601f1916010192915050565b634e487b7160e01b5f52602160045260245ffdfea26469706673582212201351d729616d81cc36b3da28b98358e57f072f6d36fd1a91196b1cd592acef5364736f6c634300081c0033",
  "linkReferences": {},
  "deployedLinkReferences": {}
}